{
  "_format": "hh-sol-artifact-1",
  "contractName": "SoulboundIdentity",
  "sourceName": "contracts/SoulboundIdentity.sol",
  "abi": [
    {
      "inputs": [
        {
          "internalType": "address",
          "name": "initialOwner",
          "type": "address"
        }
      ],
      "stateMutability": "nonpayable",
      "type": "constructor"
    },
    {
      "inputs": [
        {
          "internalType": "address",
          "name": "sender",
          "type": "address"
        },
        {
          "internalType": "uint256",
          "name": "tokenId",
          "type": "uint256"
        },
        {
          "internalType": "address",
          "name": "owner",
          "type": "address"
        }
      ],
      "name": "ERC721IncorrectOwner",
      "type": "error"
    },
    {
      "inputs": [
        {
          "internalType": "address",
          "name": "operator",
          "type": "address"
        },
        {
          "internalType": "uint256",
          "name": "tokenId",
          "type": "uint256"
        }
      ],
      "name": "ERC721InsufficientApproval",
      "type": "error"
    },
    {
      "inputs": [
        {
          "internalType": "address",
          "name": "approver",
          "type": "address"
        }
      ],
      "name": "ERC721InvalidApprover",
      "type": "error"
    },
    {
      "inputs": [
        {
          "internalType": "address",
          "name": "operator",
          "type": "address"
        }
      ],
      "name": "ERC721InvalidOperator",
      "type": "error"
    },
    {
      "inputs": [
        {
          "internalType": "address",
          "name": "owner",
          "type": "address"
        }
      ],
      "name": "ERC721InvalidOwner",
      "type": "error"
    },
    {
      "inputs": [
        {
          "internalType": "address",
          "name": "receiver",
          "type": "address"
        }
      ],
      "name": "ERC721InvalidReceiver",
      "type": "error"
    },
    {
      "inputs": [
        {
          "internalType": "address",
          "name": "sender",
          "type": "address"
        }
      ],
      "name": "ERC721InvalidSender",
      "type": "error"
    },
    {
      "inputs": [
        {
          "internalType": "uint256",
          "name": "tokenId",
          "type": "uint256"
        }
      ],
      "name": "ERC721NonexistentToken",
      "type": "error"
    },
    {
      "inputs": [
        {
          "internalType": "address",
          "name": "owner",
          "type": "address"
        }
      ],
      "name": "OwnableInvalidOwner",
      "type": "error"
    },
    {
      "inputs": [
        {
          "internalType": "address",
          "name": "account",
          "type": "address"
        }
      ],
      "name": "OwnableUnauthorizedAccount",
      "type": "error"
    },
    {
      "anonymous": false,
      "inputs": [
        {
          "indexed": true,
          "internalType": "address",
          "name": "owner",
          "type": "address"
        },
        {
          "indexed": true,
          "internalType": "address",
          "name": "approved",
          "type": "address"
        },
        {
          "indexed": true,
          "internalType": "uint256",
          "name": "tokenId",
          "type": "uint256"
        }
      ],
      "name": "Approval",
      "type": "event"
    },
    {
      "anonymous": false,
      "inputs": [
        {
          "indexed": true,
          "internalType": "address",
          "name": "owner",
          "type": "address"
        },
        {
          "indexed": true,
          "internalType": "address",
          "name": "operator",
          "type": "address"
        },
        {
          "indexed": false,
          "internalType": "bool",
          "name": "approved",
          "type": "bool"
        }
      ],
      "name": "ApprovalForAll",
      "type": "event"
    },
    {
      "anonymous": false,
      "inputs": [
        {
          "indexed": true,
          "internalType": "address",
          "name": "to",
          "type": "address"
        },
        {
          "indexed": true,
          "internalType": "uint256",
          "name": "tokenId",
          "type": "uint256"
        }
      ],
      "name": "IdentityMinted",
      "type": "event"
    },
    {
      "anonymous": false,
      "inputs": [
        {
          "indexed": true,
          "internalType": "address",
          "name": "previousOwner",
          "type": "address"
        },
        {
          "indexed": true,
          "internalType": "address",
          "name": "newOwner",
          "type": "address"
        }
      ],
      "name": "OwnershipTransferred",
      "type": "event"
    },
    {
      "anonymous": false,
      "inputs": [
        {
          "indexed": true,
          "internalType": "address",
          "name": "from",
          "type": "address"
        },
        {
          "indexed": true,
          "internalType": "address",
          "name": "to",
          "type": "address"
        },
        {
          "indexed": true,
          "internalType": "uint256",
          "name": "tokenId",
          "type": "uint256"
        }
      ],
      "name": "Transfer",
      "type": "event"
    },
    {
      "inputs": [
        {
          "internalType": "address",
          "name": "",
          "type": "address"
        },
        {
          "internalType": "uint256",
          "name": "",
          "type": "uint256"
        }
      ],
      "name": "approve",
      "outputs": [],
      "stateMutability": "nonpayable",
      "type": "function"
    },
    {
      "inputs": [
        {
          "internalType": "address",
          "name": "owner",
          "type": "address"
        }
      ],
      "name": "balanceOf",
      "outputs": [
        {
          "internalType": "uint256",
          "name": "",
          "type": "uint256"
        }
      ],
      "stateMutability": "view",
      "type": "function"
    },
    {
      "inputs": [
        {
          "internalType": "uint256",
          "name": "tokenId",
          "type": "uint256"
        }
      ],
      "name": "exists",
      "outputs": [
        {
          "internalType": "bool",
          "name": "",
          "type": "bool"
        }
      ],
      "stateMutability": "view",
      "type": "function"
    },
    {
      "inputs": [
        {
          "internalType": "uint256",
          "name": "tokenId",
          "type": "uint256"
        }
      ],
      "name": "getApproved",
      "outputs": [
        {
          "internalType": "address",
          "name": "",
          "type": "address"
        }
      ],
      "stateMutability": "view",
      "type": "function"
    },
    {
      "inputs": [
        {
          "internalType": "address",
          "name": "owner",
          "type": "address"
        },
        {
          "internalType": "address",
          "name": "operator",
          "type": "address"
        }
      ],
      "name": "isApprovedForAll",
      "outputs": [
        {
          "internalType": "bool",
          "name": "",
          "type": "bool"
        }
      ],
      "stateMutability": "view",
      "type": "function"
    },
    {
      "inputs": [],
      "name": "name",
      "outputs": [
        {
          "internalType": "string",
          "name": "",
          "type": "string"
        }
      ],
      "stateMutability": "view",
      "type": "function"
    },
    {
      "inputs": [],
      "name": "owner",
      "outputs": [
        {
          "internalType": "address",
          "name": "",
          "type": "address"
        }
      ],
      "stateMutability": "view",
      "type": "function"
    },
    {
      "inputs": [
        {
          "internalType": "uint256",
          "name": "tokenId",
          "type": "uint256"
        }
      ],
      "name": "ownerOf",
      "outputs": [
        {
          "internalType": "address",
          "name": "",
          "type": "address"
        }
      ],
      "stateMutability": "view",
      "type": "function"
    },
    {
      "inputs": [],
      "name": "renounceOwnership",
      "outputs": [],
      "stateMutability": "nonpayable",
      "type": "function"
    },
    {
      "inputs": [
        {
          "internalType": "address",
          "name": "to",
          "type": "address"
        },
        {
          "internalType": "string",
          "name": "uri",
          "type": "string"
        }
      ],
      "name": "safeMint",
      "outputs": [],
      "stateMutability": "nonpayable",
      "type": "function"
    },
    {
      "inputs": [
        {
          "internalType": "address",
          "name": "from",
          "type": "address"
        },
        {
          "internalType": "address",
          "name": "to",
          "type": "address"
        },
        {
          "internalType": "uint256",
          "name": "tokenId",
          "type": "uint256"
        }
      ],
      "name": "safeTransferFrom",
      "outputs": [],
      "stateMutability": "nonpayable",
      "type": "function"
    },
    {
      "inputs": [
        {
          "internalType": "address",
          "name": "from",
          "type": "address"
        },
        {
          "internalType": "address",
          "name": "to",
          "type": "address"
        },
        {
          "internalType": "uint256",
          "name": "tokenId",
          "type": "uint256"
        },
        {
          "internalType": "bytes",
          "name": "data",
          "type": "bytes"
        }
      ],
      "name": "safeTransferFrom",
      "outputs": [],
      "stateMutability": "nonpayable",
      "type": "function"
    },
    {
      "inputs": [
        {
          "internalType": "address",
          "name": "",
          "type": "address"
        },
        {
          "internalType": "bool",
          "name": "",
          "type": "bool"
        }
      ],
      "name": "setApprovalForAll",
      "outputs": [],
      "stateMutability": "nonpayable",
      "type": "function"
    },
    {
      "inputs": [
        {
          "internalType": "bytes4",
          "name": "interfaceId",
          "type": "bytes4"
        }
      ],
      "name": "supportsInterface",
      "outputs": [
        {
          "internalType": "bool",
          "name": "",
          "type": "bool"
        }
      ],
      "stateMutability": "view",
      "type": "function"
    },
    {
      "inputs": [],
      "name": "symbol",
      "outputs": [
        {
          "internalType": "string",
          "name": "",
          "type": "string"
        }
      ],
      "stateMutability": "view",
      "type": "function"
    },
    {
      "inputs": [
        {
          "internalType": "uint256",
          "name": "tokenId",
          "type": "uint256"
        }
      ],
      "name": "tokenURI",
      "outputs": [
        {
          "internalType": "string",
          "name": "",
          "type": "string"
        }
      ],
      "stateMutability": "view",
      "type": "function"
    },
    {
      "inputs": [],
      "name": "totalSupply",
      "outputs": [
        {
          "internalType": "uint256",
          "name": "",
          "type": "uint256"
        }
      ],
      "stateMutability": "view",
      "type": "function"
    },
    {
      "inputs": [
        {
          "internalType": "address",
          "name": "from",
          "type": "address"
        },
        {
          "internalType": "address",
          "name": "to",
          "type": "address"
        },
        {
          "internalType": "uint256",
          "name": "tokenId",
          "type": "uint256"
        }
      ],
      "name": "transferFrom",
      "outputs": [],
      "stateMutability": "nonpayable",
      "type": "function"
    },
    {
      "inputs": [
        {
          "internalType": "address",
          "name": "newOwner",
          "type": "address"
        }
      ],
      "name": "transferOwnership",
      "outputs": [],
      "stateMutability": "nonpayable",
      "type": "function"
    }
  ],
  "bytecode": "0x60806040523480156200001157600080fd5b5060405162002f4838038062002f48833981810160405281019062000037919062000288565b806040518060400160405280601281526020017f536f756c626f756e64204964656e7469747900000000000000000000000000008152506040518060400160405280600481526020017f53424944000000000000000000000000000000000000000000000000000000008152508160009081620000b5919062000534565b508060019081620000c7919062000534565b505050600073ffffffffffffffffffffffffffffffffffffffff168173ffffffffffffffffffffffffffffffffffffffff16036200013f5760006040517f1e4fbdf70000000000000000000000000000000000000000000000000000000081526004016200013691906200062c565b60405180910390fd5b62000150816200015860201b60201c565b505062000649565b6000600660009054906101000a900473ffffffffffffffffffffffffffffffffffffffff16905081600660006101000a81548173ffffffffffffffffffffffffffffffffffffffff021916908373ffffffffffffffffffffffffffffffffffffffff1602179055508173ffffffffffffffffffffffffffffffffffffffff168173ffffffffffffffffffffffffffffffffffffffff167f8be0079c531659141344cd1fd0a4f28419497f9722a3daafe3b4186f6b6457e060405160405180910390a35050565b600080fd5b600073ffffffffffffffffffffffffffffffffffffffff82169050919050565b6000620002508262000223565b9050919050565b620002628162000243565b81146200026e57600080fd5b50565b600081519050620002828162000257565b92915050565b600060208284031215620002a157620002a06200021e565b5b6000620002b18482850162000271565b91505092915050565b600081519050919050565b7f4e487b7100000000000000000000000000000000000000000000000000000000600052604160045260246000fd5b7f4e487b7100000000000000000000000000000000000000000000000000000000600052602260045260246000fd5b600060028204905060018216806200033c57607f821691505b602082108103620003525762000351620002f4565b5b50919050565b60008190508160005260206000209050919050565b60006020601f8301049050919050565b600082821b905092915050565b600060088302620003bc7fffffffffffffffffffffffffffffffffffffffffffffffffffffffffffffffff826200037d565b620003c886836200037d565b95508019841693508086168417925050509392505050565b6000819050919050565b6000819050919050565b6000620004156200040f6200040984620003e0565b620003ea565b620003e0565b9050919050565b6000819050919050565b6200043183620003f4565b6200044962000440826200041c565b8484546200038a565b825550505050565b600090565b6200046062000451565b6200046d81848462000426565b505050565b5b8181101562000495576200048960008262000456565b60018101905062000473565b5050565b601f821115620004e457620004ae8162000358565b620004b9846200036d565b81016020851015620004c9578190505b620004e1620004d8856200036d565b83018262000472565b50505b505050565b600082821c905092915050565b60006200050960001984600802620004e9565b1980831691505092915050565b6000620005248383620004f6565b9150826002028217905092915050565b6200053f82620002ba565b67ffffffffffffffff8111156200055b576200055a620002c5565b5b62000567825462000323565b6200057482828562000499565b600060209050601f831160018114620005ac576000841562000597578287015190505b620005a3858262000516565b86555062000613565b601f198416620005bc8662000358565b60005b82811015620005e657848901518255600182019150602085019450602081019050620005bf565b8683101562000606578489015162000602601f891682620004f6565b8355505b6001600288020188555050505b505050505050565b620006268162000243565b82525050565b60006020820190506200064360008301846200061b565b92915050565b6128ef80620006596000396000f3fe608060405234801561001057600080fd5b50600436106101215760003560e01c806370a08231116100ad578063b88d4fde11610071578063b88d4fde14610308578063c87b56dd14610324578063d204c45e14610354578063e985e9c514610370578063f2fde38b146103a057610121565b806370a0823114610276578063715018a6146102a65780638da5cb5b146102b057806395d89b41146102ce578063a22cb465146102ec57610121565b806318160ddd116100f457806318160ddd146101c057806323b872dd146101de57806342842e0e146101fa5780634f558e79146102165780636352211e1461024657610121565b806301ffc9a71461012657806306fdde0314610156578063081812fc14610174578063095ea7b3146101a4575b600080fd5b610140600480360381019061013b9190611b91565b6103bc565b60405161014d9190611bd9565b60405180910390f35b61015e61049e565b60405161016b9190611c84565b60405180910390f35b61018e60048036038101906101899190611cdc565b610530565b60405161019b9190611d4a565b60405180910390f35b6101be60048036038101906101b99190611d91565b61054c565b005b6101c8610587565b6040516101d59190611de0565b60405180910390f35b6101f860048036038101906101f39190611dfb565b610591565b005b610214600480360381019061020f9190611dfb565b610693565b005b610230600480360381019061022b9190611cdc565b6106b3565b60405161023d9190611bd9565b60405180910390f35b610260600480360381019061025b9190611cdc565b6106f4565b60405161026d9190611d4a565b60405180910390f35b610290600480360381019061028b9190611e4e565b610706565b60405161029d9190611de0565b60405180910390f35b6102ae6107c0565b005b6102b86107d4565b6040516102c59190611d4a565b60405180910390f35b6102d66107fe565b6040516102e39190611c84565b60405180910390f35b61030660048036038101906103019190611ea7565b610890565b005b610322600480360381019061031d919061201c565b6108cb565b005b61033e60048036038101906103399190611cdc565b6108f0565b60405161034b9190611c84565b60405180910390f35b61036e60048036038101906103699190612140565b610a70565b005b61038a6004803603810190610385919061219c565b610af0565b6040516103979190611bd9565b60405180910390f35b6103ba60048036038101906103b59190611e4e565b610b84565b005b60007f80ac58cd000000000000000000000000000000000000000000000000000000007bffffffffffffffffffffffffffffffffffffffffffffffffffffffff1916827bffffffffffffffffffffffffffffffffffffffffffffffffffffffff1916148061048757507f5b5e139f000000000000000000000000000000000000000000000000000000007bffffffffffffffffffffffffffffffffffffffffffffffffffffffff1916827bffffffffffffffffffffffffffffffffffffffffffffffffffffffff1916145b80610497575061049682610c0a565b5b9050919050565b6060600080546104ad9061220b565b80601f01602080910402602001604051908101604052809291908181526020018280546104d99061220b565b80156105265780601f106104fb57610100808354040283529160200191610526565b820191906000526020600020905b81548152906001019060200180831161050957829003601f168201915b5050505050905090565b600061053b82610c74565b5061054582610cfc565b9050919050565b6040517f08c379a000000000000000000000000000000000000000000000000000000000815260040161057e906122ae565b60405180910390fd5b6000600754905090565b600073ffffffffffffffffffffffffffffffffffffffff168273ffffffffffffffffffffffffffffffffffffffff16036106035760006040517f64a0ae920000000000000000000000000000000000000000000000000000000081526004016105fa9190611d4a565b60405180910390fd5b60006106178383610612610d39565b610d41565b90508373ffffffffffffffffffffffffffffffffffffffff168173ffffffffffffffffffffffffffffffffffffffff161461068d578382826040517f64283d7b000000000000000000000000000000000000000000000000000000008152600401610684939291906122ce565b60405180910390fd5b50505050565b6106ae838383604051806020016040528060008152506108cb565b505050565b60008073ffffffffffffffffffffffffffffffffffffffff166106d583610e0e565b73ffffffffffffffffffffffffffffffffffffffff1614159050919050565b60006106ff82610c74565b9050919050565b60008073ffffffffffffffffffffffffffffffffffffffff168273ffffffffffffffffffffffffffffffffffffffff16036107795760006040517f89c62b640000000000000000000000000000000000000000000000000000000081526004016107709190611d4a565b60405180910390fd5b600360008373ffffffffffffffffffffffffffffffffffffffff1673ffffffffffffffffffffffffffffffffffffffff168152602001908152602001600020549050919050565b6107c8610e4b565b6107d26000610ed2565b565b6000600660009054906101000a900473ffffffffffffffffffffffffffffffffffffffff16905090565b60606001805461080d9061220b565b80601f01602080910402602001604051908101604052809291908181526020018280546108399061220b565b80156108865780601f1061085b57610100808354040283529160200191610886565b820191906000526020600020905b81548152906001019060200180831161086957829003601f168201915b5050505050905090565b6040517f08c379a00000000000000000000000000000000000000000000000000000000081526004016108c2906122ae565b60405180910390fd5b6108d6848484610591565b6108ea6108e1610d39565b85858585610f98565b50505050565b6060600073ffffffffffffffffffffffffffffffffffffffff1661091383610e0e565b73ffffffffffffffffffffffffffffffffffffffff1603610969576040517f08c379a000000000000000000000000000000000000000000000000000000000815260040161096090612377565b60405180910390fd5b60006008600084815260200190815260200160002080546109899061220b565b80601f01602080910402602001604051908101604052809291908181526020018280546109b59061220b565b8015610a025780601f106109d757610100808354040283529160200191610a02565b820191906000526020600020905b8154815290600101906020018083116109e557829003601f168201915b505050505090506000610a13611149565b90506000815103610a28578192505050610a6b565b600082511115610a5d578082604051602001610a459291906123d3565b60405160208183030381529060405292505050610a6b565b610a6684611160565b925050505b919050565b610a78610e4b565b600060076000815480929190610a8d90612426565b919050559050610a9d83826111c9565b610aa781836111e7565b808373ffffffffffffffffffffffffffffffffffffffff167faf62702571aa2959cc884d2d2f058f2dde9f91f8cb7b5a5c62887ec1aef856e760405160405180910390a3505050565b6000600560008473ffffffffffffffffffffffffffffffffffffffff1673ffffffffffffffffffffffffffffffffffffffff16815260200190815260200160002060008373ffffffffffffffffffffffffffffffffffffffff1673ffffffffffffffffffffffffffffffffffffffff16815260200190815260200160002060009054906101000a900460ff16905092915050565b610b8c610e4b565b600073ffffffffffffffffffffffffffffffffffffffff168173ffffffffffffffffffffffffffffffffffffffff1603610bfe5760006040517f1e4fbdf7000000000000000000000000000000000000000000000000000000008152600401610bf59190611d4a565b60405180910390fd5b610c0781610ed2565b50565b60007f01ffc9a7000000000000000000000000000000000000000000000000000000007bffffffffffffffffffffffffffffffffffffffffffffffffffffffff1916827bffffffffffffffffffffffffffffffffffffffffffffffffffffffff1916149050919050565b600080610c8083610e0e565b9050600073ffffffffffffffffffffffffffffffffffffffff168173ffffffffffffffffffffffffffffffffffffffff1603610cf357826040517f7e273289000000000000000000000000000000000000000000000000000000008152600401610cea9190611de0565b60405180910390fd5b80915050919050565b60006004600083815260200190815260200160002060009054906101000a900473ffffffffffffffffffffffffffffffffffffffff169050919050565b600033905090565b600080610d4d84610e0e565b9050600073ffffffffffffffffffffffffffffffffffffffff168173ffffffffffffffffffffffffffffffffffffffff1614158015610db95750600073ffffffffffffffffffffffffffffffffffffffff168573ffffffffffffffffffffffffffffffffffffffff1614155b15610df9576040517f08c379a0000000000000000000000000000000000000000000000000000000008152600401610df0906122ae565b60405180910390fd5b610e04858585611283565b9150509392505050565b60006002600083815260200190815260200160002060009054906101000a900473ffffffffffffffffffffffffffffffffffffffff169050919050565b610e53610d39565b73ffffffffffffffffffffffffffffffffffffffff16610e716107d4565b73ffffffffffffffffffffffffffffffffffffffff1614610ed057610e94610d39565b6040517f118cdaa7000000000000000000000000000000000000000000000000000000008152600401610ec79190611d4a565b60405180910390fd5b565b6000600660009054906101000a900473ffffffffffffffffffffffffffffffffffffffff16905081600660006101000a81548173ffffffffffffffffffffffffffffffffffffffff021916908373ffffffffffffffffffffffffffffffffffffffff1602179055508173ffffffffffffffffffffffffffffffffffffffff168173ffffffffffffffffffffffffffffffffffffffff167f8be0079c531659141344cd1fd0a4f28419497f9722a3daafe3b4186f6b6457e060405160405180910390a35050565b60008373ffffffffffffffffffffffffffffffffffffffff163b1115611142578273ffffffffffffffffffffffffffffffffffffffff1663150b7a02868685856040518563ffffffff1660e01b8152600401610ff794939291906124c3565b6020604051808303816000875af192505050801561103357506040513d601f19601f820116820180604052508101906110309190612524565b60015b6110b7573d8060008114611063576040519150601f19603f3d011682016040523d82523d6000602084013e611068565b606091505b5060008151036110af57836040517f64a0ae920000000000000000000000000000000000000000000000000000000081526004016110a69190611d4a565b60405180910390fd5b805181602001fd5b63150b7a0260e01b7bffffffffffffffffffffffffffffffffffffffffffffffffffffffff1916817bffffffffffffffffffffffffffffffffffffffffffffffffffffffff19161461114057836040517f64a0ae920000000000000000000000000000000000000000000000000000000081526004016111379190611d4a565b60405180910390fd5b505b5050505050565b606060405180602001604052806000815250905090565b606061116b82610c74565b506000611176611149565b9050600081511161119657604051806020016040528060008152506111c1565b806111a08461149d565b6040516020016111b19291906123d3565b6040516020818303038152906040525b915050919050565b6111e382826040518060200160405280600081525061156b565b5050565b600073ffffffffffffffffffffffffffffffffffffffff1661120883610e0e565b73ffffffffffffffffffffffffffffffffffffffff160361125e576040517f08c379a0000000000000000000000000000000000000000000000000000000008152600401611255906125c3565b60405180910390fd5b8060086000848152602001908152602001600020908161127e919061278f565b505050565b60008061128f84610e0e565b9050600073ffffffffffffffffffffffffffffffffffffffff168373ffffffffffffffffffffffffffffffffffffffff16146112d1576112d081848661158f565b5b600073ffffffffffffffffffffffffffffffffffffffff168173ffffffffffffffffffffffffffffffffffffffff161461136257611313600085600080611653565b6001600360008373ffffffffffffffffffffffffffffffffffffffff1673ffffffffffffffffffffffffffffffffffffffff168152602001908152602001600020600082825403925050819055505b600073ffffffffffffffffffffffffffffffffffffffff168573ffffffffffffffffffffffffffffffffffffffff16146113e5576001600360008773ffffffffffffffffffffffffffffffffffffffff1673ffffffffffffffffffffffffffffffffffffffff168152602001908152602001600020600082825401925050819055505b846002600086815260200190815260200160002060006101000a81548173ffffffffffffffffffffffffffffffffffffffff021916908373ffffffffffffffffffffffffffffffffffffffff160217905550838573ffffffffffffffffffffffffffffffffffffffff168273ffffffffffffffffffffffffffffffffffffffff167fddf252ad1be2c89b69c2b068fc378daa952ba7f163c4a11628f55a4df523b3ef60405160405180910390a4809150509392505050565b6060600060016114ac84611818565b01905060008167ffffffffffffffff8111156114cb576114ca611ef1565b5b6040519080825280601f01601f1916602001820160405280156114fd5781602001600182028036833780820191505090505b509050600082602001820190505b600115611560578080600190039150507f3031323334353637383961626364656600000000000000000000000000000000600a86061a8153600a858161155457611553612861565b5b0494506000850361150b575b819350505050919050565b611575838361196b565b61158a611580610d39565b6000858585610f98565b505050565b61159a838383611a64565b61164e57600073ffffffffffffffffffffffffffffffffffffffff168373ffffffffffffffffffffffffffffffffffffffff160361160f57806040517f7e2732890000000000000000000000000000000000000000000000000000000081526004016116069190611de0565b60405180910390fd5b81816040517f177e802f000000000000000000000000000000000000000000000000000000008152600401611645929190612890565b60405180910390fd5b505050565b808061168c5750600073ffffffffffffffffffffffffffffffffffffffff168273ffffffffffffffffffffffffffffffffffffffff1614155b156117c057600061169c84610c74565b9050600073ffffffffffffffffffffffffffffffffffffffff168373ffffffffffffffffffffffffffffffffffffffff161415801561170757508273ffffffffffffffffffffffffffffffffffffffff168173ffffffffffffffffffffffffffffffffffffffff1614155b801561171a57506117188184610af0565b155b1561175c57826040517fa9fbf51f0000000000000000000000000000000000000000000000000000000081526004016117539190611d4a565b60405180910390fd5b81156117be57838573ffffffffffffffffffffffffffffffffffffffff168273ffffffffffffffffffffffffffffffffffffffff167f8c5be1e5ebec7d5bd14f71427d1e84f3dd0314c0f7b2291e5b200ac8c7c3b92560405160405180910390a45b505b836004600085815260200190815260200160002060006101000a81548173ffffffffffffffffffffffffffffffffffffffff021916908373ffffffffffffffffffffffffffffffffffffffff16021790555050505050565b600080600090507a184f03e93ff9f4daa797ed6e38ed64bf6a1f0100000000000000008310611876577a184f03e93ff9f4daa797ed6e38ed64bf6a1f010000000000000000838161186c5761186b612861565b5b0492506040810190505b6d04ee2d6d415b85acef810000000083106118b3576d04ee2d6d415b85acef810000000083816118a9576118a8612861565b5b0492506020810190505b662386f26fc1000083106118e257662386f26fc1000083816118d8576118d7612861565b5b0492506010810190505b6305f5e100831061190b576305f5e100838161190157611900612861565b5b0492506008810190505b612710831061193057612710838161192657611925612861565b5b0492506004810190505b60648310611953576064838161194957611948612861565b5b0492506002810190505b600a8310611962576001810190505b80915050919050565b600073ffffffffffffffffffffffffffffffffffffffff168273ffffffffffffffffffffffffffffffffffffffff16036119dd5760006040517f64a0ae920000000000000000000000000000000000000000000000000000000081526004016119d49190611d4a565b60405180910390fd5b60006119eb83836000610d41565b9050600073ffffffffffffffffffffffffffffffffffffffff168173ffffffffffffffffffffffffffffffffffffffff1614611a5f5760006040517f73c6ac6e000000000000000000000000000000000000000000000000000000008152600401611a569190611d4a565b60405180910390fd5b505050565b60008073ffffffffffffffffffffffffffffffffffffffff168373ffffffffffffffffffffffffffffffffffffffff1614158015611b1c57508273ffffffffffffffffffffffffffffffffffffffff168473ffffffffffffffffffffffffffffffffffffffff161480611add5750611adc8484610af0565b5b80611b1b57508273ffffffffffffffffffffffffffffffffffffffff16611b0383610cfc565b73ffffffffffffffffffffffffffffffffffffffff16145b5b90509392505050565b6000604051905090565b600080fd5b600080fd5b60007fffffffff0000000000000000000000000000000000000000000000000000000082169050919050565b611b6e81611b39565b8114611b7957600080fd5b50565b600081359050611b8b81611b65565b92915050565b600060208284031215611ba757611ba6611b2f565b5b6000611bb584828501611b7c565b91505092915050565b60008115159050919050565b611bd381611bbe565b82525050565b6000602082019050611bee6000830184611bca565b92915050565b600081519050919050565b600082825260208201905092915050565b60005b83811015611c2e578082015181840152602081019050611c13565b60008484015250505050565b6000601f19601f8301169050919050565b6000611c5682611bf4565b611c608185611bff565b9350611c70818560208601611c10565b611c7981611c3a565b840191505092915050565b60006020820190508181036000830152611c9e8184611c4b565b905092915050565b6000819050919050565b611cb981611ca6565b8114611cc457600080fd5b50565b600081359050611cd681611cb0565b92915050565b600060208284031215611cf257611cf1611b2f565b5b6000611d0084828501611cc7565b91505092915050565b600073ffffffffffffffffffffffffffffffffffffffff82169050919050565b6000611d3482611d09565b9050919050565b611d4481611d29565b82525050565b6000602082019050611d5f6000830184611d3b565b92915050565b611d6e81611d29565b8114611d7957600080fd5b50565b600081359050611d8b81611d65565b92915050565b60008060408385031215611da857611da7611b2f565b5b6000611db685828601611d7c565b9250506020611dc785828601611cc7565b9150509250929050565b611dda81611ca6565b82525050565b6000602082019050611df56000830184611dd1565b92915050565b600080600060608486031215611e1457611e13611b2f565b5b6000611e2286828701611d7c565b9350506020611e3386828701611d7c565b9250506040611e4486828701611cc7565b9150509250925092565b600060208284031215611e6457611e63611b2f565b5b6000611e7284828501611d7c565b91505092915050565b611e8481611bbe565b8114611e8f57600080fd5b50565b600081359050611ea181611e7b565b92915050565b60008060408385031215611ebe57611ebd611b2f565b5b6000611ecc85828601611d7c565b9250506020611edd85828601611e92565b9150509250929050565b600080fd5b600080fd5b7f4e487b7100000000000000000000000000000000000000000000000000000000600052604160045260246000fd5b611f2982611c3a565b810181811067ffffffffffffffff82111715611f4857611f47611ef1565b5b80604052505050565b6000611f5b611b25565b9050611f678282611f20565b919050565b600067ffffffffffffffff821115611f8757611f86611ef1565b5b611f9082611c3a565b9050602081019050919050565b82818337600083830152505050565b6000611fbf611fba84611f6c565b611f51565b905082815260208101848484011115611fdb57611fda611eec565b5b611fe6848285611f9d565b509392505050565b600082601f83011261200357612002611ee7565b5b8135612013848260208601611fac565b91505092915050565b6000806000806080858703121561203657612035611b2f565b5b600061204487828801611d7c565b945050602061205587828801611d7c565b935050604061206687828801611cc7565b925050606085013567ffffffffffffffff81111561208757612086611b34565b5b61209387828801611fee565b91505092959194509250565b600067ffffffffffffffff8211156120ba576120b9611ef1565b5b6120c382611c3a565b9050602081019050919050565b60006120e36120de8461209f565b611f51565b9050828152602081018484840111156120ff576120fe611eec565b5b61210a848285611f9d565b509392505050565b600082601f83011261212757612126611ee7565b5b81356121378482602086016120d0565b91505092915050565b6000806040838503121561215757612156611b2f565b5b600061216585828601611d7c565b925050602083013567ffffffffffffffff81111561218657612185611b34565b5b61219285828601612112565b9150509250929050565b600080604083850312156121b3576121b2611b2f565b5b60006121c185828601611d7c565b92505060206121d285828601611d7c565b9150509250929050565b7f4e487b7100000000000000000000000000000000000000000000000000000000600052602260045260246000fd5b6000600282049050600182168061222357607f821691505b602082108103612236576122356121dc565b5b50919050565b7f536f756c626f756e644964656e746974793a20746f6b656e206973206e6f6e2d60008201527f7472616e7366657261626c650000000000000000000000000000000000000000602082015250565b6000612298602c83611bff565b91506122a38261223c565b604082019050919050565b600060208201905081810360008301526122c78161228b565b9050919050565b60006060820190506122e36000830186611d3b565b6122f06020830185611dd1565b6122fd6040830184611d3b565b949350505050565b7f4552433732314d657461646174613a2055524920717565727920666f72206e6f60008201527f6e6578697374656e7420746f6b656e0000000000000000000000000000000000602082015250565b6000612361602f83611bff565b915061236c82612305565b604082019050919050565b6000602082019050818103600083015261239081612354565b9050919050565b600081905092915050565b60006123ad82611bf4565b6123b78185612397565b93506123c7818560208601611c10565b80840191505092915050565b60006123df82856123a2565b91506123eb82846123a2565b91508190509392505050565b7f4e487b7100000000000000000000000000000000000000000000000000000000600052601160045260246000fd5b600061243182611ca6565b91507fffffffffffffffffffffffffffffffffffffffffffffffffffffffffffffffff8203612463576124626123f7565b5b600182019050919050565b600081519050919050565b600082825260208201905092915050565b60006124958261246e565b61249f8185612479565b93506124af818560208601611c10565b6124b881611c3a565b840191505092915050565b60006080820190506124d86000830187611d3b565b6124e56020830186611d3b565b6124f26040830185611dd1565b8181036060830152612504818461248a565b905095945050505050565b60008151905061251e81611b65565b92915050565b60006020828403121561253a57612539611b2f565b5b60006125488482850161250f565b91505092915050565b7f4552433732314d657461646174613a205552492073657420666f72206e6f6e6560008201527f78697374656e7420746f6b656e00000000000000000000000000000000000000602082015250565b60006125ad602d83611bff565b91506125b882612551565b604082019050919050565b600060208201905081810360008301526125dc816125a0565b9050919050565b60008190508160005260206000209050919050565b60006020601f8301049050919050565b600082821b905092915050565b6000600883026126457fffffffffffffffffffffffffffffffffffffffffffffffffffffffffffffffff82612608565b61264f8683612608565b95508019841693508086168417925050509392505050565b6000819050919050565b600061268c61268761268284611ca6565b612667565b611ca6565b9050919050565b6000819050919050565b6126a683612671565b6126ba6126b282612693565b848454612615565b825550505050565b600090565b6126cf6126c2565b6126da81848461269d565b505050565b5b818110156126fe576126f36000826126c7565b6001810190506126e0565b5050565b601f82111561274357612714816125e3565b61271d846125f8565b8101602085101561272c578190505b612740612738856125f8565b8301826126df565b50505b505050565b600082821c905092915050565b600061276660001984600802612748565b1980831691505092915050565b600061277f8383612755565b9150826002028217905092915050565b61279882611bf4565b67ffffffffffffffff8111156127b1576127b0611ef1565b5b6127bb825461220b565b6127c6828285612702565b600060209050601f8311600181146127f957600084156127e7578287015190505b6127f18582612773565b865550612859565b601f198416612807866125e3565b60005b8281101561282f5784890151825560018201915060208501945060208101905061280a565b8683101561284c5784890151612848601f891682612755565b8355505b6001600288020188555050505b505050505050565b7f4e487b7100000000000000000000000000000000000000000000000000000000600052601260045260246000fd5b60006040820190506128a56000830185611d3b565b6128b26020830184611dd1565b939250505056fea264697066735822122025839a19b680c42c206d99fd8328c1a72444fe1d69aab75560e056892756617964736f6c63430008140033",
  "linkReferences": {},
  "deployedLinkReferences": {}
}